{
  "_format": "hh-sol-artifact-1",
  "contractName": "HackathonHungary2023PoP",
  "sourceName": "contracts/HackathonHungary2023PoP.sol",
  "abi": [
    {
      "inputs": [
        {
          "internalType": "address",
          "name": "_owner",
          "type": "address"
        }
      ],
      "stateMutability": "nonpayable",
      "type": "constructor"
    },
    {
      "inputs": [
        {
          "internalType": "address",
          "name": "sender",
          "type": "address"
        },
        {
          "internalType": "uint256",
          "name": "tokenId",
          "type": "uint256"
        },
        {
          "internalType": "address",
          "name": "owner",
          "type": "address"
        }
      ],
      "name": "ERC721IncorrectOwner",
      "type": "error"
    },
    {
      "inputs": [
        {
          "internalType": "address",
          "name": "operator",
          "type": "address"
        },
        {
          "internalType": "uint256",
          "name": "tokenId",
          "type": "uint256"
        }
      ],
      "name": "ERC721InsufficientApproval",
      "type": "error"
    },
    {
      "inputs": [
        {
          "internalType": "address",
          "name": "approver",
          "type": "address"
        }
      ],
      "name": "ERC721InvalidApprover",
      "type": "error"
    },
    {
      "inputs": [
        {
          "internalType": "address",
          "name": "operator",
          "type": "address"
        }
      ],
      "name": "ERC721InvalidOperator",
      "type": "error"
    },
    {
      "inputs": [
        {
          "internalType": "address",
          "name": "owner",
          "type": "address"
        }
      ],
      "name": "ERC721InvalidOwner",
      "type": "error"
    },
    {
      "inputs": [
        {
          "internalType": "address",
          "name": "receiver",
          "type": "address"
        }
      ],
      "name": "ERC721InvalidReceiver",
      "type": "error"
    },
    {
      "inputs": [
        {
          "internalType": "address",
          "name": "sender",
          "type": "address"
        }
      ],
      "name": "ERC721InvalidSender",
      "type": "error"
    },
    {
      "inputs": [
        {
          "internalType": "uint256",
          "name": "tokenId",
          "type": "uint256"
        }
      ],
      "name": "ERC721NonexistentToken",
      "type": "error"
    },
    {
      "inputs": [
        {
          "internalType": "address",
          "name": "owner",
          "type": "address"
        }
      ],
      "name": "OwnableInvalidOwner",
      "type": "error"
    },
    {
      "inputs": [
        {
          "internalType": "address",
          "name": "account",
          "type": "address"
        }
      ],
      "name": "OwnableUnauthorizedAccount",
      "type": "error"
    },
    {
      "inputs": [],
      "name": "ReentrancyGuardReentrantCall",
      "type": "error"
    },
    {
      "anonymous": false,
      "inputs": [
        {
          "indexed": true,
          "internalType": "address",
          "name": "owner",
          "type": "address"
        },
        {
          "indexed": true,
          "internalType": "address",
          "name": "approved",
          "type": "address"
        },
        {
          "indexed": true,
          "internalType": "uint256",
          "name": "tokenId",
          "type": "uint256"
        }
      ],
      "name": "Approval",
      "type": "event"
    },
    {
      "anonymous": false,
      "inputs": [
        {
          "indexed": true,
          "internalType": "address",
          "name": "owner",
          "type": "address"
        },
        {
          "indexed": true,
          "internalType": "address",
          "name": "operator",
          "type": "address"
        },
        {
          "indexed": false,
          "internalType": "bool",
          "name": "approved",
          "type": "bool"
        }
      ],
      "name": "ApprovalForAll",
      "type": "event"
    },
    {
      "anonymous": false,
      "inputs": [
        {
          "indexed": true,
          "internalType": "address",
          "name": "previousOwner",
          "type": "address"
        },
        {
          "indexed": true,
          "internalType": "address",
          "name": "newOwner",
          "type": "address"
        }
      ],
      "name": "OwnershipTransferred",
      "type": "event"
    },
    {
      "anonymous": false,
      "inputs": [
        {
          "indexed": true,
          "internalType": "address",
          "name": "from",
          "type": "address"
        },
        {
          "indexed": true,
          "internalType": "address",
          "name": "to",
          "type": "address"
        },
        {
          "indexed": true,
          "internalType": "uint256",
          "name": "tokenId",
          "type": "uint256"
        }
      ],
      "name": "Transfer",
      "type": "event"
    },
    {
      "inputs": [],
      "name": "MAX_SUPPLY_PER_ADDRESS",
      "outputs": [
        {
          "internalType": "uint256",
          "name": "",
          "type": "uint256"
        }
      ],
      "stateMutability": "view",
      "type": "function"
    },
    {
      "inputs": [],
      "name": "TIER_ORGANISER",
      "outputs": [
        {
          "internalType": "uint16",
          "name": "",
          "type": "uint16"
        }
      ],
      "stateMutability": "view",
      "type": "function"
    },
    {
      "inputs": [],
      "name": "TIER_PLAYER",
      "outputs": [
        {
          "internalType": "uint16",
          "name": "",
          "type": "uint16"
        }
      ],
      "stateMutability": "view",
      "type": "function"
    },
    {
      "inputs": [
        {
          "internalType": "address",
          "name": "to",
          "type": "address"
        },
        {
          "internalType": "uint256",
          "name": "tokenId",
          "type": "uint256"
        }
      ],
      "name": "approve",
      "outputs": [],
      "stateMutability": "nonpayable",
      "type": "function"
    },
    {
      "inputs": [
        {
          "internalType": "address",
          "name": "owner",
          "type": "address"
        }
      ],
      "name": "balanceOf",
      "outputs": [
        {
          "internalType": "uint256",
          "name": "",
          "type": "uint256"
        }
      ],
      "stateMutability": "view",
      "type": "function"
    },
    {
      "inputs": [],
      "name": "baseTokenURI",
      "outputs": [
        {
          "internalType": "string",
          "name": "",
          "type": "string"
        }
      ],
      "stateMutability": "view",
      "type": "function"
    },
    {
      "inputs": [
        {
          "internalType": "uint256",
          "name": "tokenId",
          "type": "uint256"
        }
      ],
      "name": "getApproved",
      "outputs": [
        {
          "internalType": "address",
          "name": "",
          "type": "address"
        }
      ],
      "stateMutability": "view",
      "type": "function"
    },
    {
      "inputs": [
        {
          "internalType": "address",
          "name": "account",
          "type": "address"
        }
      ],
      "name": "hasNFT",
      "outputs": [
        {
          "internalType": "bool",
          "name": "",
          "type": "bool"
        }
      ],
      "stateMutability": "view",
      "type": "function"
    },
    {
      "inputs": [
        {
          "internalType": "address",
          "name": "owner",
          "type": "address"
        },
        {
          "internalType": "address",
          "name": "operator",
          "type": "address"
        }
      ],
      "name": "isApprovedForAll",
      "outputs": [
        {
          "internalType": "bool",
          "name": "",
          "type": "bool"
        }
      ],
      "stateMutability": "view",
      "type": "function"
    },
    {
      "inputs": [
        {
          "internalType": "address",
          "name": "to",
          "type": "address"
        },
        {
          "internalType": "uint16",
          "name": "tierId",
          "type": "uint16"
        }
      ],
      "name": "mint",
      "outputs": [
        {
          "internalType": "uint256",
          "name": "",
          "type": "uint256"
        }
      ],
      "stateMutability": "nonpayable",
      "type": "function"
    },
    {
      "inputs": [],
      "name": "name",
      "outputs": [
        {
          "internalType": "string",
          "name": "",
          "type": "string"
        }
      ],
      "stateMutability": "view",
      "type": "function"
    },
    {
      "inputs": [],
      "name": "owner",
      "outputs": [
        {
          "internalType": "address",
          "name": "",
          "type": "address"
        }
      ],
      "stateMutability": "view",
      "type": "function"
    },
    {
      "inputs": [
        {
          "internalType": "uint256",
          "name": "tokenId",
          "type": "uint256"
        }
      ],
      "name": "ownerOf",
      "outputs": [
        {
          "internalType": "address",
          "name": "",
          "type": "address"
        }
      ],
      "stateMutability": "view",
      "type": "function"
    },
    {
      "inputs": [],
      "name": "renounceOwnership",
      "outputs": [],
      "stateMutability": "nonpayable",
      "type": "function"
    },
    {
      "inputs": [
        {
          "internalType": "address",
          "name": "from",
          "type": "address"
        },
        {
          "internalType": "address",
          "name": "to",
          "type": "address"
        },
        {
          "internalType": "uint256",
          "name": "tokenId",
          "type": "uint256"
        }
      ],
      "name": "safeTransferFrom",
      "outputs": [],
      "stateMutability": "nonpayable",
      "type": "function"
    },
    {
      "inputs": [
        {
          "internalType": "address",
          "name": "from",
          "type": "address"
        },
        {
          "internalType": "address",
          "name": "to",
          "type": "address"
        },
        {
          "internalType": "uint256",
          "name": "tokenId",
          "type": "uint256"
        },
        {
          "internalType": "bytes",
          "name": "_data",
          "type": "bytes"
        }
      ],
      "name": "safeTransferFrom",
      "outputs": [],
      "stateMutability": "nonpayable",
      "type": "function"
    },
    {
      "inputs": [
        {
          "internalType": "address",
          "name": "operator",
          "type": "address"
        },
        {
          "internalType": "bool",
          "name": "approved",
          "type": "bool"
        }
      ],
      "name": "setApprovalForAll",
      "outputs": [],
      "stateMutability": "nonpayable",
      "type": "function"
    },
    {
      "inputs": [
        {
          "internalType": "string",
          "name": "_baseTokenURI",
          "type": "string"
        }
      ],
      "name": "setBaseTokenURI",
      "outputs": [],
      "stateMutability": "nonpayable",
      "type": "function"
    },
    {
      "inputs": [
        {
          "internalType": "bytes4",
          "name": "interfaceId",
          "type": "bytes4"
        }
      ],
      "name": "supportsInterface",
      "outputs": [
        {
          "internalType": "bool",
          "name": "",
          "type": "bool"
        }
      ],
      "stateMutability": "view",
      "type": "function"
    },
    {
      "inputs": [],
      "name": "symbol",
      "outputs": [
        {
          "internalType": "string",
          "name": "",
          "type": "string"
        }
      ],
      "stateMutability": "view",
      "type": "function"
    },
    {
      "inputs": [
        {
          "internalType": "uint256",
          "name": "",
          "type": "uint256"
        }
      ],
      "name": "tokenTiers",
      "outputs": [
        {
          "internalType": "uint16",
          "name": "",
          "type": "uint16"
        }
      ],
      "stateMutability": "view",
      "type": "function"
    },
    {
      "inputs": [
        {
          "internalType": "uint256",
          "name": "tokenId",
          "type": "uint256"
        }
      ],
      "name": "tokenURI",
      "outputs": [
        {
          "internalType": "string",
          "name": "",
          "type": "string"
        }
      ],
      "stateMutability": "view",
      "type": "function"
    },
    {
      "inputs": [
        {
          "internalType": "address",
          "name": "from",
          "type": "address"
        },
        {
          "internalType": "address",
          "name": "to",
          "type": "address"
        },
        {
          "internalType": "uint256",
          "name": "tokenId",
          "type": "uint256"
        }
      ],
      "name": "transferFrom",
      "outputs": [],
      "stateMutability": "nonpayable",
      "type": "function"
    },
    {
      "inputs": [
        {
          "internalType": "address",
          "name": "newOwner",
          "type": "address"
        }
      ],
      "name": "transferOwnership",
      "outputs": [],
      "stateMutability": "nonpayable",
      "type": "function"
    },
    {
      "inputs": [
        {
          "internalType": "address",
          "name": "to",
          "type": "address"
        }
      ],
      "name": "withdraw",
      "outputs": [],
      "stateMutability": "nonpayable",
      "type": "function"
    }
  ],
  "bytecode": "0x60806040526040518060200160405280600081525060099081620000249190620004c1565b503480156200003257600080fd5b50604051620031a9380380620031a9833981810160405281019062000058919062000612565b806040518060400160405280601f81526020017f506f6c6b61646f744861636b6174686f6e48756e6761727932303233506f50008152506040518060400160405280600681526020017f50484832335000000000000000000000000000000000000000000000000000008152508160009081620000d69190620004c1565b508060019081620000e89190620004c1565b5050506001600681905550600073ffffffffffffffffffffffffffffffffffffffff168173ffffffffffffffffffffffffffffffffffffffff1603620001685760006040517f1e4fbdf70000000000000000000000000000000000000000000000000000000081526004016200015f919062000655565b60405180910390fd5b62000179816200018160201b60201c565b505062000672565b6000600760009054906101000a900473ffffffffffffffffffffffffffffffffffffffff16905081600760006101000a81548173ffffffffffffffffffffffffffffffffffffffff021916908373ffffffffffffffffffffffffffffffffffffffff1602179055508173ffffffffffffffffffffffffffffffffffffffff168173ffffffffffffffffffffffffffffffffffffffff167f8be0079c531659141344cd1fd0a4f28419497f9722a3daafe3b4186f6b6457e060405160405180910390a35050565b600081519050919050565b7f4e487b7100000000000000000000000000000000000000000000000000000000600052604160045260246000fd5b7f4e487b7100000000000000000000000000000000000000000000000000000000600052602260045260246000fd5b60006002820490506001821680620002c957607f821691505b602082108103620002df57620002de62000281565b5b50919050565b60008190508160005260206000209050919050565b60006020601f8301049050919050565b600082821b905092915050565b600060088302620003497fffffffffffffffffffffffffffffffffffffffffffffffffffffffffffffffff826200030a565b6200035586836200030a565b95508019841693508086168417925050509392505050565b6000819050919050565b6000819050919050565b6000620003a26200039c62000396846200036d565b62000377565b6200036d565b9050919050565b6000819050919050565b620003be8362000381565b620003d6620003cd82620003a9565b84845462000317565b825550505050565b600090565b620003ed620003de565b620003fa818484620003b3565b505050565b5b81811015620004225762000416600082620003e3565b60018101905062000400565b5050565b601f82111562000471576200043b81620002e5565b6200044684620002fa565b8101602085101562000456578190505b6200046e6200046585620002fa565b830182620003ff565b50505b505050565b600082821c905092915050565b6000620004966000198460080262000476565b1980831691505092915050565b6000620004b1838362000483565b9150826002028217905092915050565b620004cc8262000247565b67ffffffffffffffff811115620004e857620004e762000252565b5b620004f48254620002b0565b6200050182828562000426565b600060209050601f83116001811462000539576000841562000524578287015190505b620005308582620004a3565b865550620005a0565b601f1984166200054986620002e5565b60005b8281101562000573578489015182556001820191506020850194506020810190506200054c565b868310156200059357848901516200058f601f89168262000483565b8355505b6001600288020188555050505b505050505050565b600080fd5b600073ffffffffffffffffffffffffffffffffffffffff82169050919050565b6000620005da82620005ad565b9050919050565b620005ec81620005cd565b8114620005f857600080fd5b50565b6000815190506200060c81620005e1565b92915050565b6000602082840312156200062b576200062a620005a8565b5b60006200063b84828501620005fb565b91505092915050565b6200064f81620005cd565b82525050565b60006020820190506200066c600083018462000644565b92915050565b612b2780620006826000396000f3fe608060405234801561001057600080fd5b50600436106101735760003560e01c8063785f8ee3116100de578063ad0be4bd11610097578063c87b56dd11610071578063c87b56dd1461044a578063d547cfb71461047a578063e985e9c514610498578063f2fde38b146104c857610173565b8063ad0be4bd146103e0578063b27a896914610410578063b88d4fde1461042e57610173565b8063785f8ee31461030a578063818f2e421461033a5780638da5cb5b1461036a57806391c1195e1461038857806395d89b41146103a6578063a22cb465146103c457610173565b806330176e131161013057806330176e131461024c57806342842e0e1461026857806351cff8d9146102845780636352211e146102a057806370a08231146102d0578063715018a61461030057610173565b806301ffc9a71461017857806306fdde03146101a8578063081812fc146101c6578063095ea7b3146101f65780630ccd61541461021257806323b872dd14610230575b600080fd5b610192600480360381019061018d9190611c61565b6104e4565b60405161019f9190611ca9565b60405180910390f35b6101b06105c6565b6040516101bd9190611d54565b60405180910390f35b6101e060048036038101906101db9190611dac565b610658565b6040516101ed9190611e1a565b60405180910390f35b610210600480360381019061020b9190611e61565b610674565b005b61021a61068a565b6040516102279190611ebe565b60405180910390f35b61024a60048036038101906102459190611ed9565b61068f565b005b61026660048036038101906102619190612061565b610791565b005b610282600480360381019061027d9190611ed9565b6107ac565b005b61029e600480360381019061029991906120aa565b6107cc565b005b6102ba60048036038101906102b59190611dac565b61082e565b6040516102c79190611e1a565b60405180910390f35b6102ea60048036038101906102e591906120aa565b610840565b6040516102f791906120e6565b60405180910390f35b6103086108fa565b005b610324600480360381019061031f91906120aa565b61090e565b6040516103319190611ca9565b60405180910390f35b610354600480360381019061034f9190611dac565b610964565b6040516103619190611ebe565b60405180910390f35b610372610985565b60405161037f9190611e1a565b60405180910390f35b6103906109af565b60405161039d91906120e6565b60405180910390f35b6103ae6109b4565b6040516103bb9190611d54565b60405180910390f35b6103de60048036038101906103d9919061212d565b610a46565b005b6103fa60048036038101906103f59190612199565b610a5c565b60405161040791906120e6565b60405180910390f35b610418610c07565b6040516104259190611ebe565b60405180910390f35b6104486004803603810190610443919061227a565b610c0c565b005b610464600480360381019061045f9190611dac565b610c5f565b6040516104719190611d54565b60405180910390f35b610482610d3c565b60405161048f9190611d54565b60405180910390f35b6104b260048036038101906104ad91906122fd565b610dca565b6040516104bf9190611ca9565b60405180910390f35b6104e260048036038101906104dd91906120aa565b610e5e565b005b60007f80ac58cd000000000000000000000000000000000000000000000000000000007bffffffffffffffffffffffffffffffffffffffffffffffffffffffff1916827bffffffffffffffffffffffffffffffffffffffffffffffffffffffff191614806105af57507f5b5e139f000000000000000000000000000000000000000000000000000000007bffffffffffffffffffffffffffffffffffffffffffffffffffffffff1916827bffffffffffffffffffffffffffffffffffffffffffffffffffffffff1916145b806105bf57506105be82610e72565b5b9050919050565b6060600080546105d59061236c565b80601f01602080910402602001604051908101604052809291908181526020018280546106019061236c565b801561064e5780601f106106235761010080835404028352916020019161064e565b820191906000526020600020905b81548152906001019060200180831161063157829003601f168201915b5050505050905090565b600061066382610edc565b5061066d82610f64565b9050919050565b6106868282610681610fa1565b610fa9565b5050565b600181565b600073ffffffffffffffffffffffffffffffffffffffff168273ffffffffffffffffffffffffffffffffffffffff16036107015760006040517f64a0ae920000000000000000000000000000000000000000000000000000000081526004016106f89190611e1a565b60405180910390fd5b60006107158383610710610fa1565b610fbb565b90508373ffffffffffffffffffffffffffffffffffffffff168173ffffffffffffffffffffffffffffffffffffffff161461078b578382826040517f64283d7b0000000000000000000000000000000000000000000000000000000081526004016107829392919061239d565b60405180910390fd5b50505050565b6107996111d5565b80600990816107a89190612580565b5050565b6107c783838360405180602001604052806000815250610c0c565b505050565b6107d461125c565b6107dc6111d5565b8073ffffffffffffffffffffffffffffffffffffffff166108fc479081150290604051600060405180830381858888f19350505050158015610822573d6000803e3d6000fd5b5061082b6112a2565b50565b600061083982610edc565b9050919050565b60008073ffffffffffffffffffffffffffffffffffffffff168273ffffffffffffffffffffffffffffffffffffffff16036108b35760006040517f89c62b640000000000000000000000000000000000000000000000000000000081526004016108aa9190611e1a565b60405180910390fd5b600360008373ffffffffffffffffffffffffffffffffffffffff1673ffffffffffffffffffffffffffffffffffffffff168152602001908152602001600020549050919050565b6109026111d5565b61090c60006112ac565b565b6000600a60008373ffffffffffffffffffffffffffffffffffffffff1673ffffffffffffffffffffffffffffffffffffffff16815260200190815260200160002060009054906101000a900460ff169050919050565b600b6020528060005260406000206000915054906101000a900461ffff1681565b6000600760009054906101000a900473ffffffffffffffffffffffffffffffffffffffff16905090565b600181565b6060600180546109c39061236c565b80601f01602080910402602001604051908101604052809291908181526020018280546109ef9061236c565b8015610a3c5780601f10610a1157610100808354040283529160200191610a3c565b820191906000526020600020905b815481529060010190602001808311610a1f57829003601f168201915b5050505050905090565b610a58610a51610fa1565b8383611372565b5050565b6000610a666111d5565b600a60008473ffffffffffffffffffffffffffffffffffffffff1673ffffffffffffffffffffffffffffffffffffffff16815260200190815260200160002060009054906101000a900460ff1615610af3576040517f08c379a0000000000000000000000000000000000000000000000000000000008152600401610aea9061269e565b60405180910390fd5b600161ffff168261ffff161480610b125750600261ffff168261ffff16145b610b51576040517f08c379a0000000000000000000000000000000000000000000000000000000008152600401610b489061270a565b60405180910390fd5b60086000815480929190610b6490612759565b9190505550610b748360016114e1565b6001600a60008573ffffffffffffffffffffffffffffffffffffffff1673ffffffffffffffffffffffffffffffffffffffff16815260200190815260200160002060006101000a81548160ff02191690831515021790555081600b6000600854815260200190815260200160002060006101000a81548161ffff021916908361ffff160217905550600854905092915050565b600281565b6000610c4d576040517f08c379a0000000000000000000000000000000000000000000000000000000008152600401610c44906127ed565b60405180910390fd5b610c59848484846114ff565b50505050565b6060600161ffff16600b600084815260200190815260200160002060009054906101000a900461ffff1661ffff1603610cba576009604051602001610ca491906128e7565b6040516020818303038152906040529050610d37565b600261ffff16600b600084815260200190815260200160002060009054906101000a900461ffff1661ffff1603610d13576009604051602001610cfd9190612955565b6040516020818303038152906040529050610d37565b6009604051602001610d2591906129c3565b60405160208183030381529060405290505b919050565b60098054610d499061236c565b80601f0160208091040260200160405190810160405280929190818152602001828054610d759061236c565b8015610dc25780601f10610d9757610100808354040283529160200191610dc2565b820191906000526020600020905b815481529060010190602001808311610da557829003601f168201915b505050505081565b6000600560008473ffffffffffffffffffffffffffffffffffffffff1673ffffffffffffffffffffffffffffffffffffffff16815260200190815260200160002060008373ffffffffffffffffffffffffffffffffffffffff1673ffffffffffffffffffffffffffffffffffffffff16815260200190815260200160002060009054906101000a900460ff16905092915050565b610e666111d5565b610e6f8161151c565b50565b60007f01ffc9a7000000000000000000000000000000000000000000000000000000007bffffffffffffffffffffffffffffffffffffffffffffffffffffffff1916827bffffffffffffffffffffffffffffffffffffffffffffffffffffffff1916149050919050565b600080610ee8836115a2565b9050600073ffffffffffffffffffffffffffffffffffffffff168173ffffffffffffffffffffffffffffffffffffffff1603610f5b57826040517f7e273289000000000000000000000000000000000000000000000000000000008152600401610f5291906120e6565b60405180910390fd5b80915050919050565b60006004600083815260200190815260200160002060009054906101000a900473ffffffffffffffffffffffffffffffffffffffff169050919050565b600033905090565b610fb683838360016115df565b505050565b600080610fc7846115a2565b9050600073ffffffffffffffffffffffffffffffffffffffff168373ffffffffffffffffffffffffffffffffffffffff1614611009576110088184866117a4565b5b600073ffffffffffffffffffffffffffffffffffffffff168173ffffffffffffffffffffffffffffffffffffffff161461109a5761104b6000856000806115df565b6001600360008373ffffffffffffffffffffffffffffffffffffffff1673ffffffffffffffffffffffffffffffffffffffff168152602001908152602001600020600082825403925050819055505b600073ffffffffffffffffffffffffffffffffffffffff168573ffffffffffffffffffffffffffffffffffffffff161461111d576001600360008773ffffffffffffffffffffffffffffffffffffffff1673ffffffffffffffffffffffffffffffffffffffff168152602001908152602001600020600082825401925050819055505b846002600086815260200190815260200160002060006101000a81548173ffffffffffffffffffffffffffffffffffffffff021916908373ffffffffffffffffffffffffffffffffffffffff160217905550838573ffffffffffffffffffffffffffffffffffffffff168273ffffffffffffffffffffffffffffffffffffffff167fddf252ad1be2c89b69c2b068fc378daa952ba7f163c4a11628f55a4df523b3ef60405160405180910390a4809150509392505050565b6111dd610fa1565b73ffffffffffffffffffffffffffffffffffffffff166111fb610985565b73ffffffffffffffffffffffffffffffffffffffff161461125a5761121e610fa1565b6040517f118cdaa70000000000000000000000000000000000000000000000000000000081526004016112519190611e1a565b60405180910390fd5b565b600260065403611298576040517f3ee5aeb500000000000000000000000000000000000000000000000000000000815260040160405180910390fd5b6002600681905550565b6001600681905550565b6000600760009054906101000a900473ffffffffffffffffffffffffffffffffffffffff16905081600760006101000a81548173ffffffffffffffffffffffffffffffffffffffff021916908373ffffffffffffffffffffffffffffffffffffffff1602179055508173ffffffffffffffffffffffffffffffffffffffff168173ffffffffffffffffffffffffffffffffffffffff167f8be0079c531659141344cd1fd0a4f28419497f9722a3daafe3b4186f6b6457e060405160405180910390a35050565b600073ffffffffffffffffffffffffffffffffffffffff168273ffffffffffffffffffffffffffffffffffffffff16036113e357816040517f5b08ba180000000000000000000000000000000000000000000000000000000081526004016113da9190611e1a565b60405180910390fd5b80600560008573ffffffffffffffffffffffffffffffffffffffff1673ffffffffffffffffffffffffffffffffffffffff16815260200190815260200160002060008473ffffffffffffffffffffffffffffffffffffffff1673ffffffffffffffffffffffffffffffffffffffff16815260200190815260200160002060006101000a81548160ff0219169083151502179055508173ffffffffffffffffffffffffffffffffffffffff168373ffffffffffffffffffffffffffffffffffffffff167f17307eab39ab6107e8899845ad3d59bd9653f200f220920489ca2b5937696c31836040516114d49190611ca9565b60405180910390a3505050565b6114fb828260405180602001604052806000815250611868565b5050565b61150a84848461068f565b61151684848484611884565b50505050565b6115246111d5565b600073ffffffffffffffffffffffffffffffffffffffff168173ffffffffffffffffffffffffffffffffffffffff16036115965760006040517f1e4fbdf700000000000000000000000000000000000000000000000000000000815260040161158d9190611e1a565b60405180910390fd5b61159f816112ac565b50565b60006002600083815260200190815260200160002060009054906101000a900473ffffffffffffffffffffffffffffffffffffffff169050919050565b80806116185750600073ffffffffffffffffffffffffffffffffffffffff168273ffffffffffffffffffffffffffffffffffffffff1614155b1561174c57600061162884610edc565b9050600073ffffffffffffffffffffffffffffffffffffffff168373ffffffffffffffffffffffffffffffffffffffff161415801561169357508273ffffffffffffffffffffffffffffffffffffffff168173ffffffffffffffffffffffffffffffffffffffff1614155b80156116a657506116a48184610dca565b155b156116e857826040517fa9fbf51f0000000000000000000000000000000000000000000000000000000081526004016116df9190611e1a565b60405180910390fd5b811561174a57838573ffffffffffffffffffffffffffffffffffffffff168273ffffffffffffffffffffffffffffffffffffffff167f8c5be1e5ebec7d5bd14f71427d1e84f3dd0314c0f7b2291e5b200ac8c7c3b92560405160405180910390a45b505b836004600085815260200190815260200160002060006101000a81548173ffffffffffffffffffffffffffffffffffffffff021916908373ffffffffffffffffffffffffffffffffffffffff16021790555050505050565b6117af838383611a3b565b61186357600073ffffffffffffffffffffffffffffffffffffffff168373ffffffffffffffffffffffffffffffffffffffff160361182457806040517f7e27328900000000000000000000000000000000000000000000000000000000815260040161181b91906120e6565b60405180910390fd5b81816040517f177e802f00000000000000000000000000000000000000000000000000000000815260040161185a9291906129e5565b60405180910390fd5b505050565b6118728383611afc565b61187f6000848484611884565b505050565b60008373ffffffffffffffffffffffffffffffffffffffff163b1115611a35578273ffffffffffffffffffffffffffffffffffffffff1663150b7a026118c8610fa1565b8685856040518563ffffffff1660e01b81526004016118ea9493929190612a63565b6020604051808303816000875af192505050801561192657506040513d601f19601f820116820180604052508101906119239190612ac4565b60015b6119aa573d8060008114611956576040519150601f19603f3d011682016040523d82523d6000602084013e61195b565b606091505b5060008151036119a257836040517f64a0ae920000000000000000000000000000000000000000000000000000000081526004016119999190611e1a565b60405180910390fd5b805181602001fd5b63150b7a0260e01b7bffffffffffffffffffffffffffffffffffffffffffffffffffffffff1916817bffffffffffffffffffffffffffffffffffffffffffffffffffffffff191614611a3357836040517f64a0ae92000000000000000000000000000000000000000000000000000000008152600401611a2a9190611e1a565b60405180910390fd5b505b50505050565b60008073ffffffffffffffffffffffffffffffffffffffff168373ffffffffffffffffffffffffffffffffffffffff1614158015611af357508273ffffffffffffffffffffffffffffffffffffffff168473ffffffffffffffffffffffffffffffffffffffff161480611ab45750611ab38484610dca565b5b80611af257508273ffffffffffffffffffffffffffffffffffffffff16611ada83610f64565b73ffffffffffffffffffffffffffffffffffffffff16145b5b90509392505050565b600073ffffffffffffffffffffffffffffffffffffffff168273ffffffffffffffffffffffffffffffffffffffff1603611b6e5760006040517f64a0ae92000000000000000000000000000000000000000000000000000000008152600401611b659190611e1a565b60405180910390fd5b6000611b7c83836000610fbb565b9050600073ffffffffffffffffffffffffffffffffffffffff168173ffffffffffffffffffffffffffffffffffffffff1614611bf05760006040517f73c6ac6e000000000000000000000000000000000000000000000000000000008152600401611be79190611e1a565b60405180910390fd5b505050565b6000604051905090565b600080fd5b600080fd5b60007fffffffff0000000000000000000000000000000000000000000000000000000082169050919050565b611c3e81611c09565b8114611c4957600080fd5b50565b600081359050611c5b81611c35565b92915050565b600060208284031215611c7757611c76611bff565b5b6000611c8584828501611c4c565b91505092915050565b60008115159050919050565b611ca381611c8e565b82525050565b6000602082019050611cbe6000830184611c9a565b92915050565b600081519050919050565b600082825260208201905092915050565b60005b83811015611cfe578082015181840152602081019050611ce3565b60008484015250505050565b6000601f19601f8301169050919050565b6000611d2682611cc4565b611d308185611ccf565b9350611d40818560208601611ce0565b611d4981611d0a565b840191505092915050565b60006020820190508181036000830152611d6e8184611d1b565b905092915050565b6000819050919050565b611d8981611d76565b8114611d9457600080fd5b50565b600081359050611da681611d80565b92915050565b600060208284031215611dc257611dc1611bff565b5b6000611dd084828501611d97565b91505092915050565b600073ffffffffffffffffffffffffffffffffffffffff82169050919050565b6000611e0482611dd9565b9050919050565b611e1481611df9565b82525050565b6000602082019050611e2f6000830184611e0b565b92915050565b611e3e81611df9565b8114611e4957600080fd5b50565b600081359050611e5b81611e35565b92915050565b60008060408385031215611e7857611e77611bff565b5b6000611e8685828601611e4c565b9250506020611e9785828601611d97565b9150509250929050565b600061ffff82169050919050565b611eb881611ea1565b82525050565b6000602082019050611ed36000830184611eaf565b92915050565b600080600060608486031215611ef257611ef1611bff565b5b6000611f0086828701611e4c565b9350506020611f1186828701611e4c565b9250506040611f2286828701611d97565b9150509250925092565b600080fd5b600080fd5b7f4e487b7100000000000000000000000000000000000000000000000000000000600052604160045260246000fd5b611f6e82611d0a565b810181811067ffffffffffffffff82111715611f8d57611f8c611f36565b5b80604052505050565b6000611fa0611bf5565b9050611fac8282611f65565b919050565b600067ffffffffffffffff821115611fcc57611fcb611f36565b5b611fd582611d0a565b9050602081019050919050565b82818337600083830152505050565b6000612004611fff84611fb1565b611f96565b9050828152602081018484840111156120205761201f611f31565b5b61202b848285611fe2565b509392505050565b600082601f83011261204857612047611f2c565b5b8135612058848260208601611ff1565b91505092915050565b60006020828403121561207757612076611bff565b5b600082013567ffffffffffffffff81111561209557612094611c04565b5b6120a184828501612033565b91505092915050565b6000602082840312156120c0576120bf611bff565b5b60006120ce84828501611e4c565b91505092915050565b6120e081611d76565b82525050565b60006020820190506120fb60008301846120d7565b92915050565b61210a81611c8e565b811461211557600080fd5b50565b60008135905061212781612101565b92915050565b6000806040838503121561214457612143611bff565b5b600061215285828601611e4c565b925050602061216385828601612118565b9150509250929050565b61217681611ea1565b811461218157600080fd5b50565b6000813590506121938161216d565b92915050565b600080604083850312156121b0576121af611bff565b5b60006121be85828601611e4c565b92505060206121cf85828601612184565b9150509250929050565b600067ffffffffffffffff8211156121f4576121f3611f36565b5b6121fd82611d0a565b9050602081019050919050565b600061221d612218846121d9565b611f96565b90508281526020810184848401111561223957612238611f31565b5b612244848285611fe2565b509392505050565b600082601f83011261226157612260611f2c565b5b813561227184826020860161220a565b91505092915050565b6000806000806080858703121561229457612293611bff565b5b60006122a287828801611e4c565b94505060206122b387828801611e4c565b93505060406122c487828801611d97565b925050606085013567ffffffffffffffff8111156122e5576122e4611c04565b5b6122f18782880161224c565b91505092959194509250565b6000806040838503121561231457612313611bff565b5b600061232285828601611e4c565b925050602061233385828601611e4c565b9150509250929050565b7f4e487b7100000000000000000000000000000000000000000000000000000000600052602260045260246000fd5b6000600282049050600182168061238457607f821691505b6020821081036123975761239661233d565b5b50919050565b60006060820190506123b26000830186611e0b565b6123bf60208301856120d7565b6123cc6040830184611e0b565b949350505050565b60008190508160005260206000209050919050565b60006020601f8301049050919050565b600082821b905092915050565b6000600883026124367fffffffffffffffffffffffffffffffffffffffffffffffffffffffffffffffff826123f9565b61244086836123f9565b95508019841693508086168417925050509392505050565b6000819050919050565b600061247d61247861247384611d76565b612458565b611d76565b9050919050565b6000819050919050565b61249783612462565b6124ab6124a382612484565b848454612406565b825550505050565b600090565b6124c06124b3565b6124cb81848461248e565b505050565b5b818110156124ef576124e46000826124b8565b6001810190506124d1565b5050565b601f82111561253457612505816123d4565b61250e846123e9565b8101602085101561251d578190505b612531612529856123e9565b8301826124d0565b50505b505050565b600082821c905092915050565b600061255760001984600802612539565b1980831691505092915050565b60006125708383612546565b9150826002028217905092915050565b61258982611cc4565b67ffffffffffffffff8111156125a2576125a1611f36565b5b6125ac825461236c565b6125b78282856124f3565b600060209050601f8311600181146125ea57600084156125d8578287015190505b6125e28582612564565b86555061264a565b601f1984166125f8866123d4565b60005b82811015612620578489015182556001820191506020850194506020810190506125fb565b8683101561263d5784890151612639601f891682612546565b8355505b6001600288020188555050505b505050505050565b7f4164647265737320616c72656164792068617320616e204e4654000000000000600082015250565b6000612688601a83611ccf565b915061269382612652565b602082019050919050565b600060208201905081810360008301526126b78161267b565b9050919050565b7f496e76616c696420746f6b656e20746965720000000000000000000000000000600082015250565b60006126f4601283611ccf565b91506126ff826126be565b602082019050919050565b60006020820190508181036000830152612723816126e7565b9050919050565b7f4e487b7100000000000000000000000000000000000000000000000000000000600052601160045260246000fd5b600061276482611d76565b91507fffffffffffffffffffffffffffffffffffffffffffffffffffffffffffffffff82036127965761279561272a565b5b600182019050919050565b7f43616e6e6f74207472616e7366657220736f756c626f756e64204e4654000000600082015250565b60006127d7601d83611ccf565b91506127e2826127a1565b602082019050919050565b60006020820190508181036000830152612806816127ca565b9050919050565b600081905092915050565b600081546128258161236c565b61282f818661280d565b9450600182166000811461284a576001811461285f57612892565b60ff1983168652811515820286019350612892565b612868856123d4565b60005b8381101561288a5781548189015260018201915060208101905061286b565b838801955050505b50505092915050565b7f6f7267616e697365722e6a736f6e000000000000000000000000000000000000600082015250565b60006128d1600e8361280d565b91506128dc8261289b565b600e82019050919050565b60006128f38284612818565b91506128fe826128c4565b915081905092915050565b7f706c617965722e6a736f6e000000000000000000000000000000000000000000600082015250565b600061293f600b8361280d565b915061294a82612909565b600b82019050919050565b60006129618284612818565b915061296c82612932565b915081905092915050565b7f64656661756c742e6a736f6e0000000000000000000000000000000000000000600082015250565b60006129ad600c8361280d565b91506129b882612977565b600c82019050919050565b60006129cf8284612818565b91506129da826129a0565b915081905092915050565b60006040820190506129fa6000830185611e0b565b612a0760208301846120d7565b9392505050565b600081519050919050565b600082825260208201905092915050565b6000612a3582612a0e565b612a3f8185612a19565b9350612a4f818560208601611ce0565b612a5881611d0a565b840191505092915050565b6000608082019050612a786000830187611e0b565b612a856020830186611e0b565b612a9260408301856120d7565b8181036060830152612aa48184612a2a565b905095945050505050565b600081519050612abe81611c35565b92915050565b600060208284031215612ada57612ad9611bff565b5b6000612ae884828501612aaf565b9150509291505056fea2646970667358221220800de15ab4a4ab381672ffa5d2f75c156ed4e336ea8e579636d5243d73ed7b9d64736f6c63430008140033",
  "linkReferences": {},
  "deployedLinkReferences": {}
}